:020000040800F2
:100000009006002029020008C7030008BF0300086B
:10001000C3030008E302000879070008000000009D
:10002000000000000000000000000000F5040008CF
:10003000E702000800000000C9030008E505000809
:10004000430200084302000843020008430200087C
:10005000430200084302000843020008430200086C
:10006000430200084302000843020008430200085C
:10007000430200084302000843020008430200084C
:10008000430200084302000843020008430200083C
:10009000430200084302000843020008430200082C
:1000A000430200084302000843020008430200081C
:1000B000430200084302000843020008430200080C
:1000C00043020008430200084302000843020008FC
:1000D00043020008430200084302000843020008EC
:1000E00043020008430200084302000843020008DC
:1000F00043020008430200084302000843020008CC
:1001000043020008430200084302000843020008BB
:1001100043020008430200084302000843020008AB
:10012000430200084302000843020008430200089B
:10013000430200084302000843020008430200088B
:10014000430200084302000843020008430200087B
:10015000430200084302000843020008430200086B
:10016000430200084302000843020008430200085B
:10017000430200084302000843020008430200084B
:10018000430200084302000800F002F800F03CF8C7
:100190000AA090E8000C82448344AAF10107DA45E2
:1001A00001D100F031F8AFF2090EBAE80F0013F0F8
:1001B000010F18BFFB1A43F0010318470C0700009A
:1001C0002C070000103A24BF78C878C1FAD852072B
:1001D00024BF30C830C144BF04680C6070470000C1
:1001E0000023002400250026103A28BF78C1FBD840
:1001F000520728BF30C148BF0B6070471FB500F0E1
:100200005DFB1FBD10B510BD00F031F81146FFF7C2
:10021000F5FF00F001FB00F04FF803B4FFF7F2FF29
:1002200003BC00F057F80000094880470948004720
:10023000FEE7FEE7FEE7FEE7FEE7FEE7FEE7FEE796
:10024000FEE7FEE704480549054A064B70470000F3
:100250000106000889010008900000209006002097
:10026000900200209002002070477047704775464A
:1002700000F02CF8AE4605006946534620F0070012
:10028000854618B020B5FFF7DDFFBDE820404FF0F0
:1002900000064FF000074FF000084FF0000B21F070
:1002A0000701AC46ACE8C009ACE8C009ACE8C0093D
:1002B000ACE8C0098D46704710B50446AFF3008026
:1002C0002046BDE81040FFF7A8BF00000048704777
:1002D0002C00002001491820ABBEFEE726000200DA
:1002E000704700BFFEE77047F0B50A4600210023C3
:1002F000002400BF3DE0012505FA01F3156805EA79
:1003000003049C4234D105684F000326BE40B54328
:10031000056015794E00B5400668354305601579CE
:10032000012D02D01579022D16D185684F000326C4
:10033000BE40B543856055794E00B540866835436B
:100340008560456801268E40B543456045689679CD
:100350008E40B6B235434560C5684F000326BE40A7
:10036000B543C560D5794E00B540C6683543C56014
:10037000491C1029BFD3F0BDF0B5002300244D0760
:10038000ED0E02FA05F3CE1000F1200555F82650C7
:100390004E07F70E0F26BE40B543CF1000F12006E2
:1003A00046F82750CE1000F1200555F8265045EAB2
:1003B0000304CE1000F1200545F82640F0BD00BF33
:1003C000FEE700BFFEE770477047000029B1064A0C
:1003D00012680243044B1A6004E0034A1268824325
:1003E000014B1A60704700003038024029B1064ABC
:1003F00012680243044B1A6004E0034A1268824305
:10040000014B1A607047000040380240F0B50021EF
:1004100000220024022500260223324F3F6807F005
:100420000C0121B1042905D0082937D105E02E4F50
:10043000076036E02D4F076033E02A4F3F1F3F68CB
:10044000C7F38056274F3F1F3F6807F03F036EB149
:10045000264FB7FBF3F7DFF88CC0ACF1040CDCF8E7
:1004600000C0CCF3881C07FB0CF40CE01E4FB7FB5C
:10047000F3F7DFF870C0ACF1040CDCF800C0CCF38B
:10048000881C07FB0CF4174F3F1F3F68C7F3014759
:100490007F1C7D00B4FBF5F7076002E0124F076098
:1004A00000BF00BF0F4F3F6807F0F0010909104F70
:1004B0007A5C0768D74047600A4F3F6807F4E0510D
:1004C000890A0B4F7A5C4768D7408760054F3F68C1
:1004D00007F46041490B064F7A5C4768D740C76014
:1004E000F0BD0000083802400024F40000127A0039
:1004F0001C000020704700000CB500200190009007
:100500003448006840F480303249086000BF314808
:10051000006800F4003000900198401C01900098A1
:1005200018B90198B0F5A04FF1D12A48006800F43D
:10053000003010B10120009001E0002000900098F0
:10054000012846D123484030006840F080502149BE
:10055000403108602048006840F440401E4908606F
:100560001C48083000681B490831086008460068CC
:1005700040F4004008600846006840F4A05008605D
:100580001648091F0860081F006840F08070091FA6
:10059000086000BF0F48006800F000700028F9D024
:1005A00040F205700E4908600A480830006820F0E3
:1005B00003000849083108600846006840F002005E
:1005C000086000BF03480830006800F00C000828ED
:1005D000F8D10CBD003802400070004008544007BC
:1005E000003C024001200449086004480068401CA7
:1005F0000249086070470000180000201400002025
:1006000010B51548006840F470001349086013489D
:10061000006840F001001149086000200F490831CE
:1006200008600E4800680E4908400C4908600D48F3
:10063000091D0860081F006820F48020091F086059
:10064000002006490C310860FFF756FF4FF00060AC
:1006500001498039086010BD88ED00E00038024093
:10066000FFFFF6FE1030002421B1828942F40052CF
:10067000828104E082894DF6FF731A4082817047BF
:1006800002460020B1F5007F00D100BF13880B4067
:100690000BB1012000E00020704700002DE9FF476A
:1006A00005460E460024A14600BFA046B08900B111
:1006B00000BF2C8A24F44054F08804432C82AC8977
:1006C00041F20C608443B088318908437189084342
:1006D0000443AC81AC8A24F44074B0890443AC82F6
:1006E0006846FFF793FE2048854202D01F488542A6
:1006F00002D1DDF80C9001E0DDF80890A88900F443
:10070000004040B109EBC90000EB09103168490015
:10071000B0FBF1F707E009EBC90000EB0910316805
:100720008900B0FBF1F76420B7FBF0F00401200969
:10073000642101FB1078A88900F4004040B1322008
:1007400000EBC800B0FBF1F000F00700044308E044
:10075000322000EB08106421B0FBF1F000F00F0034
:1007600004432C81BDE8FF870010014000140140C4
:10077000C1F308028280704700BFFEE700B587B072
:1007800001210846FFF722FE01211020FFF72EFE6F
:10079000072209211E48FFF7EFFD07220A211C4806
:1007A000FFF7EAFD4FF40070059002208DF8180065
:1007B00000208DF81A0001208DF81B0002208DF812
:1007C000190005A91248FFF78FFD4FF480600590CE
:1007D00002208DF8180005A90D48FFF785FD4FF49C
:1007E000E13001900020ADF80800ADF80A00ADF846
:1007F0000C00ADF810000C20ADF80E0001A9054862
:10080000FFF74CFF01210348FFF72EFF07B000BDA3
:100810000000024000100140234800686422B0FB41
:10082000F2F1B1F1807F00D31DE021F07F40401E46
:100830004FF0E022506150170F22002807DA13070B
:100840001D0E1A4B00F00F04241F1D5503E0130763
:100850001C0E174B1C5400BF00204FF0E02290618B
:100860000720106100BFFFF789FF1CE011480068F6
:10087000642818D100200F49086000BF80210E486D
:10088000FFF7FEFE0028F9D041210B48FFF770FF6B
:1008900000BF80210848FFF7F3FE0028F9D042216D
:1008A0000548FFF765FFE1E70000002018ED00E0D4
:1008B00000E400E014000020001001404FF0407000
:1008C000E1EE100A70470000E80800080000002070
:1008D0002C000000C4010008140900082C000020AE
:1008E00064060000E0010008007A030A000000002E
:1008F00000000000010203040607080900000000D0
:1009000000000000000000000102030401020304D3
:0409100006070809C5
:0400000508000229C4
:00000001FF
